:100000000C942A000C9447000C9447000C94470071
:100010000C9447000C9447000C9447000C94470044
:100020000C9447000C9447000C941B0C0C94470054
:100030000C9430180C9474080C942B080C94C2087F
:100040000C9447000C9447000C9447000C94470014
:100050000C94470011241FBECFE5D8E0DEBFCDBF12
:1000600010E0A0E6B0E0EAE6F2E302C005900D92EF
:10007000A437B107D9F710E0A4E7B0E001C01D92A2
:10008000A938B107E1F70E943A180C9433190C947F
:100090000000EF92FF920F931F937B018C0120E0F1
:1000A00030E040E05FE40E94490388238CF0C801FF
:1000B000B70120E030E040E05FE40E94C1010E940F
:1000C000A9039B01AC01205030404040504806C07D
:1000D000C801B7010E94A9039B01AC01B901CA0183
:1000E0001F910F91FF90EF900895A0E0B0E0EBE733
:1000F000F0E00C94FC18DC012B01FA019C91923089
:1001000008F439C1EB018881823008F433C194309E
:1001100069F4843009F02FC111969C91119789815F
:10012000981709F428C1A0E6B0E025C1843009F48D
:1001300021C18230A9F4923009F01DC19A01AD01AC
:1001400088E0EA010990AE01E90109929E0181501F
:10015000C1F7E201898111969C918923818308C1AD
:10016000923009F407C112962D903C901397EB0141
:100170008A819B811496AD90BD90CD90DC901797AD
:10018000EC80FD800E811F819101281B390BB90184
:1001900037FF04C066277727621B730B6032710537
:1001A0000CF061C0121613066CF537014801062EDB
:1001B00004C096948794779467940A94D2F721E0C8
:1001C00030E040E050E004C0220F331F441F551FB1
:1001D0006A95D2F721503040404050402E213F21B7
:1001E00040235123211531054105510521F021E01E
:1001F00030E040E050E079018A01E628F72808293C
:1002000019293CC0232BD1F1260E371E350146019A
:10021000062E04C096948794779467940A94D2F734
:1002200021E030E040E050E004C0220F331F441FC3
:10023000551F6A95D2F721503040404050402A2146
:100240003B214C215D21211531054105510521F04E
:1002500021E030E040E050E059016A01A628B728CB
:10026000C828D9280BC0821593052CF01C01AA249C
:10027000BB24650103C0EE24FF24870111969C91E5
:10028000D20111968C91981709F445C0992339F041
:10029000A80197012A193B094C095D0906C0A6016E
:1002A00095012E193F09400B510B57FD08C01182D3
:1002B0003382228224833583468357831DC081E0A5
:1002C00081833382228288279927DC01821B930B4A
:1002D000A40BB50B84839583A683B7830DC0220F2F
:1002E000331F441F551F24833583468357838281E0
:1002F000938101979383828324813581468157813D
:10030000DA01C9010197A109B1098F5F9F4FAF4F72
:10031000BF4328F30BC0918333822282EA0CFB1C7B
:100320000C1D1D1DE482F5820683178383E0808304
:10033000248135814681578157FF1AC0C901AA27F8
:1003400097FDA095BA2F81709070A070B0705695EF
:10035000479537952795822B932BA42BB52B848318
:100360009583A683B7838281938101969383828349
:10037000DF0101C0D201CD01CDB7DEB7E2E10C94BF
:100380001819A0E2B0E0E7ECF1E00C9408196983D9
:100390007A838B839C832D833E834F835887E9E048
:1003A000EE2EF12CEC0EFD1ECE010196B7010E943F
:1003B000D2048E010F5E1F4FCE010596B8010E9438
:1003C000D2048A8991E089278A8BC701B801AE01DE
:1003D000475E5F4F0E9475000E94FD03A096E6E015
:1003E0000C942419A0E2B0E0E8EFF1E00C940819B5
:1003F00069837A838B839C832D833E834F835887C5
:10040000F9E0EF2EF12CEC0EFD1ECE010196B701A6
:100410000E94D2048E010F5E1F4FCE010596B801D7
:100420000E94D204C701B801AE01475E5F4F0E942F
:1004300075000E94FD03A096E6E00C942419A0E24A
:10044000B0E0E5E2F2E00C94FC1869837A838B83D8
:100450009C832D833E834F835887CE010196BE0136
:10046000675F7F4F0E94D204CE010596BE016F5E8A
:100470007F4F0E94D2049985923088F0898982301A
:10048000C8F0943019F4823051F404C0843029F457
:10049000923081F480E690E0C6C0923049F420E0CA
:1004A0009A858A89981321E02A87CE010996BBC0D4
:1004B000823049F420E09A858A89981321E02A8BBA
:1004C000CE014196B0C02D843E844F8458886D88FB
:1004D0007E888F88988CEE24FF248701AA24BB2471
:1004E000650140E050E060E070E0E0E0F0E0C10174
:1004F00081709070892BE9F0E60CF71C081D191D1E
:100500009A01AB012A0D3B1D4C1D5D1D80E090E062
:10051000A0E0B0E0E614F7040805190520F481E036
:1005200090E0A0E0B0E0BA01A901480F591F6A1F8E
:100530007B1FAA0CBB1CCC1CDD1C97FE08C081E0F5
:1005400090E0A0E0B0E0A82AB92ACA2ADB2A3196B6
:10055000E032F10549F0660C771C881C991C569412
:10056000479437942794C3CFFA85EA892B893C892D
:100570008B859C85280F391F2E5F3F4F17C0CA01FE
:1005800081709070892B61F016950795F794E79428
:1005900080E090E0A0E0B0E8E82AF92A0A2B1B2BC3
:1005A00076956795579547952F5F3F4F77FDE7CF36
:1005B0000CC0440F551F661F771F17FD4160EE0CDE
:1005C000FF1C001F111F21503040403090E05907A0
:1005D00090E0690790E4790760F32B8F3C8FDB0193
:1005E000CA018F779070A070B07080349105A1051A
:1005F000B10561F447FD0AC0E114F10401051105DC
:1006000029F0405C5F4F6F4F7F4F40781A8EFE1786
:1006100011F081E08A8F4D8F5E8F6F8F78A383E01A
:10062000898FCE0149960E94FD03A096E2E10C94C9
:100630001819A8E1B0E0EFE1F3E00C940819698320
:100640007A838B839C832D833E834F83588789E0F5
:10065000E82EF12CEC0EFD1ECE010196B7010E9492
:10066000D2048E010F5E1F4FCE010596B8010E9485
:10067000D2048985823040F08989823028F0C70110
:10068000B8010E944A0501C08FEF6896E6E00C941D
:100690002419A8E1B0E0EFE4F3E00C9408196983B1
:1006A0007A838B839C832D833E834F83588789E095
:1006B000E82EF12CEC0EFD1ECE010196B7010E9432
:1006C000D2048E010F5E1F4FCE010596B8010E9425
:1006D000D2048985823040F08989823028F0C701B0
:1006E000B8010E944A0501C08FEF6896E6E00C94BD
:1006F0002419A8E1B0E0EFE7F3E00C94081969834E
:100700007A838B839C832D833E834F83588789E034
:10071000E82EF12CEC0EFD1ECE010196B7010E94D1
:10072000D2048E010F5E1F4FCE010596B8010E94C4
:10073000D2048985823040F08989823028F0C7014F
:10074000B8010E944A0501C081E06896E6E00C9479
:100750002419ACE0B0E0EFEAF3E00C940C196983E3
:100760007A838B839C83CE010196BE016B5F7F4FA2
:100770000E94D2048D81823061F1823050F1843048
:1007800021F48E81882351F12EC02F81388537FDC9
:1007900020C06E812F3131051CF06623F9F023C093
:1007A0008EE190E0821B930B29853A854B855C8511
:1007B00004C056954795379527958A95D2F76623B5
:1007C000B1F050954095309521953F4F4F4F5F4F79
:1007D0000EC020E030E040E050E009C02FEF3FEFD6
:1007E0004FEF5FE704C020E030E040E050E8B9019F
:1007F000CA012C96E2E00C942819DF92EF92FF9246
:100800000F931F93FC01E480F58006811781D1804E
:100810008081823048F480E090E0A0E1B0E0E82AF6
:10082000F92A0A2B1B2BA5C0843009F49FC0823003
:1008300021F4EE24FF24870105C0E114F104010531
:10084000110519F4E0E0F0E096C0628173819FEF3A
:10085000623879070CF05BC022E83FEF261B370BAC
:100860002A3131052CF020E030E040E050E02AC091
:10087000B801A701022E04C0769567955795479554
:100880000A94D2F781E090E0A0E0B0E004C0880FC5
:10089000991FAA1FBB1F2A95D2F70197A109B10979
:1008A0008E219F21A023B1230097A105B10521F03E
:1008B00081E090E0A0E0B0E09A01AB01282B392B59
:1008C0004A2B5B2BDA01C9018F779070A070B07052
:1008D00080349105A105B10539F427FF09C0205CDA
:1008E0003F4F4F4F5F4F04C0215C3F4F4F4F5F4F13
:1008F000E0E0F0E02030A0E03A07A0E04A07A0E402
:100900005A0710F0E1E0F0E079018A0127C0603871
:10091000710564F5FB01E158FF4FD801C7018F77DE
:100920009070A070B07080349105A105B10539F4C4
:10093000E7FE0DC080E490E0A0E0B0E004C08FE3EB
:1009400090E0A0E0B0E0E80EF91E0A1F1B1F17FFA1
:1009500005C016950795F794E794319687E01695AC
:100960000795F794E7948A95D1F705C0EE24FF2404
:100970008701EFEFF0E06E2F679566276795902F60
:100980009F77D794DD24D7948E2F8695492F462BB9
:10099000582F5D29B701CA011F910F91FF90EF9069
:1009A000DF900895FC01DB01408151812281622F9B
:1009B0006F7770E0221F2227221F9381892F880FD3
:1009C000822B282F30E0991F9927991F11969C930D
:1009D000119721153105A9F54115510561057105DD
:1009E00011F482E037C082E89FEF13969C938E93B8
:1009F00012979A01AB0167E0220F331F441F551F66
:100A00006A95D1F783E08C930DC0220F331F441FEA
:100A1000551F12968D919C911397019713969C9355
:100A20008E931297203080E0380780E0480780E4FA
:100A3000580758F314962D933D934D935C93179755
:100A400008952F3F310579F4411551056105710570
:100A500019F484E08C93089564FF03C081E08C93C3
:100A600012C01C9210C02F57304013963C932E9307
:100A7000129783E08C9387E0440F551F661F771F02
:100A80008A95D1F7706414964D935D936D937C9322
:100A9000179708951F93DC01FB019C91923008F495
:100AA00047C08081823008F443C0943051F41196DD
:100AB0001C91843099F58181682F70E0611B710968
:100AC0003FC0843021F0923031F48230B9F181811D
:100AD000882389F12DC011961C9111978230F1F075
:100AE00081811817D9F412962D913C911397828128
:100AF00093818217930794F028173907BCF0149656
:100B00008D919D910D90BC91A02D248135814681C0
:100B10005781281739074A075B0718F4112341F05A
:100B20000AC082179307A407B50740F4112319F0F0
:100B300061E070E005C06FEF7FEF02C060E070E041
:100B4000CB011F910895DF93CF9300D000D00F9277
:100B5000CDB7DEB79D838C8381E08B83EC81FD81F3
:100B600080819181A281B3812CE231E040E050E0AC
:100B7000BC01CD010E94DA18DC01CB010097A10570
:100B8000B10509F04BC1EC81FD818481883008F00A
:100B900042C1EC81FD8184818823B1F4A0E4B0E0FE
:100BA000E0E4F0E080818D7F8C93A0E4B0E0E0E4AD
:100BB000F0E080818B7F8C93AAE2B0E0EAE2F0E083
:100BC00080818B7F8C9366C0EC81FD818481813034
:100BD000B1F4A0E4B0E0E0E4F0E0808182608C93C6
:100BE000A0E4B0E0E0E4F0E080818B7F8C93AAE2A7
:100BF000B0E0EAE2F0E080818B7F8C934BC0EC8127
:100C0000FD8184818230B1F4A0E4B0E0E0E4F0E062
:100C100080818D7F8C93A0E4B0E0E0E4F0E08081FF
:100C200084608C93AAE2B0E0EAE2F0E080818B7FFE
:100C30008C9330C0EC81FD8184818330B1F4A0E4D9
:100C4000B0E0E0E4F0E0808182608C93A0E4B0E06A
:100C5000E0E4F0E0808184608C93AAE2B0E0EAE214
:100C6000F0E080818B7F8C9315C0A0E4B0E0E0E4DD
:100C7000F0E0808182608C93A0E4B0E0E0E4F0E0FA
:100C8000808184608C93AAE2B0E0EAE2F0E08081A7
:100C900084608C93EC81FD818581882331F0EC8127
:100CA000FD818581813009F0B3C00E9419078B83D3
:100CB000EC81FD818581809374008B81813009F006
:100CC000AFC00E942C078B838B81813009F0A8C0B4
:100CD0000E9446078B838B81813009F0A1C0EC8193
:100CE000FD818581813009F04DC0A0E4B0E0E0E4F1
:100CF000F0E0808180688C93EC81FD81808191811E
:100D0000A281B381880F991FAA1FBB1F880F991F4B
:100D1000AA1FBB1F880F991FAA1FBB1F880F991FEF
:100D2000AA1FBB1F9C01AD0180E092E1AAE7B0E0E1
:100D3000BC01CD010E94DA18DA01C90101979A833A
:100D40008983AAE2B0E0EAE2F0E0808188608C93D7
:100D5000AAE2B0E0EAE2F0E0808180618C93E0E416
:100D6000F0E089819A81892F99278083E9E2F0E078
:100D700089818083AFE5B0E0EFE5F0E080818068B5
:100D80008C934EC0A0E4B0E0E0E4F0E080818068A5
:100D90008C93EC81FD8180819181A281B381880F48
:100DA000991FAA1FBB1F880F991FAA1FBB1F880F5F
:100DB000991FAA1FBB1F880F991FAA1FBB1F9C0149
:100DC000AD0180E092E1AAE7B0E0BC01CD010E9454
:100DD000DA18DA01C90101979A838983AAE2B0E09F
:100DE000EAE2F0E0808188608C93AAE2B0E0EAE277
:100DF000F0E0808180618C93E0E4F0E089819A8169
:100E0000892F99278083E9E2F0E08981808308C0F7
:100E100084E08B8305C083E08B8302C082E08B83F8
:100E20008B810F900F900F900F900F90CF91DF91CB
:100E30000895DF93CF930F92CDB7DEB781E089831A
:100E4000A0E4B0E0E0E4F0E080818F7B8C938981C6
:100E50000F90CF91DF910895DF93CF930F92CDB78D
:100E6000DEB781E08983A0E4B0E0E0E4F0E08081D7
:100E70008F7D8C93A0E4B0E0E0E4F0E080818F7E91
:100E80008C9389810F90CF91DF910895DF93CF9359
:100E90000F92CDB7DEB781E08983A0E4B0E0E0E453
:100EA000F0E08081877F8C9389810F90CF91DF91D3
:100EB0000895DF93CF9300D00F92CDB7DEB78B8329
:100EC00081E08A8380917400882381F4EBE2F0E072
:100ED0008081829586958770817089838981813030
:100EE000F9F4ECE2F0E08B8180831AC08091750008
:100EF0008823B1F4EBE2F0E08081869586958695B3
:100F0000882F90E081709070009751F48B818093CE
:100F10007500AAE2B0E0EAE2F0E0808180628C93A2
:100F20008A810F900F900F90CF91DF910895DF93FA
:100F3000CF9300D00F92CDB7DEB79B838A8381E039
:100F4000898380917400882379F4EBE2F0E080815A
:100F5000881F8827881F8130A1F4ECE2F0E08081AF
:100F6000EA81FB8180830DC08A819B8190938800F8
:100F700080938700AAE2B0E0EAE2F0E08081806836
:100F80008C9389810F900F900F90CF91DF910895EE
:100F9000DF93CF9300D00F92CDB7DEB79B838A83C8
:100FA000EBE2F0E080818295869586958370817072
:100FB00089838981813061F4ABE2B0E0EBE2F0E05B
:100FC000808180648C93EA81FB8181E0808303C00F
:100FD000EA81FB8110820F900F900F90CF91DF91EB
:100FE0000895DF93CF9300D00F92CDB7DEB79B83E8
:100FF0008A8381E089838A819B81009711F4198219
:1010000006C08A819B8190937700809376008981C6
:101010000F900F900F90CF91DF910895DF93CF93B2
:1010200000D00F92CDB7DEB79B838A8381E089839E
:101030008A819B81009711F4198206C08A819B8165
:10104000909379008093780089810F900F900F9092
:10105000CF91DF9108951F920F920FB60F92112436
:101060008F939F93AF93BF93EF93FF93DF93CF93B0
:10107000CDB7DEB7EBE2F0E0808182958695877090
:10108000882F90E0817090708823D1F0EBE2F0E03F
:101090008081869586958695882F90E081709070E6
:1010A000009771F4ECE2F0E080917500808310927B
:1010B0007500AAE2B0E0EAE2F0E0808180648C93FF
:1010C000AAE2B0E0EAE2F0E080818F7D8C93CF91DC
:1010D000DF91FF91EF91BF91AF919F918F910F9011
:1010E0000FBE0F901F9018951F920F920FB60F9280
:1010F00011242F933F934F935F936F937F938F931D
:101100009F93AF93BF93EF93FF93DF93CF93CDB7AD
:10111000DEB7EBE2F0E08081829586958770882FBC
:1011200090E081709070882399F0A0918700B09131
:101130008800ECE2F0E080818C93809178009091BF
:101140007900009729F0E0917800F09179000995F5
:10115000AAE2B0E0EAE2F0E080818F778C93CF9151
:10116000DF91FF91EF91BF91AF919F918F917F910F
:101170006F915F914F913F912F910F900FBE0F9004
:101180001F9018951F920F920FB60F9211242F9354
:101190003F934F935F936F937F938F939F93AF93FF
:1011A000BF93EF93FF93DF93CF93CDB7DEB78091DB
:1011B000760090917700009729F0E0917600F09109
:1011C00077000995AAE2B0E0EAE2F0E080818F7B47
:1011D0008C93CF91DF91FF91EF91BF91AF919F9150
:1011E0008F917F916F915F914F913F912F910F90D0
:1011F0000FBE0F901F901895DF93CF9300D000D0B3
:101200000F92CDB7DEB79B838A831982EA81FB8177
:101210008081282F30E03D832C838C819D8181301B
:10122000910571F12C813D812230310509F44BC0CB
:101230008C819D81009709F069C0EA81FB818281E0
:10124000882F90E000968230910530F4EA81FB818E
:10125000818180937C0002C081E08983EA81FB81E7
:101260008381882F90E000968230910530F4EA81E6
:10127000FB81838180937F004BC081E0898348C0DC
:10128000EA81FB818281882F90E00096823091056F
:1012900030F4EA81FB81818180937D0002C081E08E
:1012A0008983EA81FB818381882F90E000968230D8
:1012B000910530F4EA81FB8183818093800028C00E
:1012C00081E0898325C0EA81FB818281882F90E0BB
:1012D00000968230910530F4EA81FB818181809310
:1012E0007E0002C081E08983EA81FB818381882FAF
:1012F00090E000968230910530F4EA81FB81838191
:101300008093810005C081E0898302C081E08983E8
:1013100089810F900F900F900F900F90CF91DF91D8
:101320000895DF93CF93CDB7DEB72C970FB6F8941F
:10133000DEBF0FBECDBF8A834B835C836D837E830C
:1013400019828A81282F30E03C872B878B859C85EA
:10135000009739F02B853C852130310509F475C0A3
:10136000DBC08B819C81AD81BE818F3F9105A10542
:10137000B10508F067C080917F00282F30E03A87E0
:10138000298789859A85009731F029853A8521300A
:10139000310521F154C0A3E5B0E0E3E5F0E0808140
:1013A00088608C93A3E5B0E0E3E5F0E08081887F7E
:1013B0008C93A3E5B0E0E3E5F0E0908180917C00C0
:1013C000892B8C93A8E5B0E0E8E5F0E080818160AE
:1013D0008C93ECE5F0E08B818083A0C0A3E5B0E0C6
:1013E000E3E5F0E0808188608C93A3E5B0E0E3E57D
:1013F000F0E080818F7B8C93AFE5B0E0EFE5F0E02B
:10140000808180688C93A9E5B0E0E9E5F0E0808117
:1014100082608C93A3E5B0E0E3E5F0E08081887F13
:101420008C93A3E5B0E0E3E5F0E0908180917C004F
:10143000892B8C93ECE5F0E08B8180836FC081E099
:1014400089836CC081E0898369C08B819C81AD8177
:10145000BE81803030E0930731E0A30730E0B3076E
:1014600008F057C0ECE4F0E08B819C819095819569
:101470009F4F9183808380918000282F30E03887B0
:101480002F838F819885009731F02F813885213007
:101490003105E9F03BC0AEE4B0E0EEE4F0E080817D
:1014A000887F8C93AEE4B0E0EEE4F0E09081809130
:1014B0007D00892B8C93A8E5B0E0E8E5F0E0808121
:1014C00084608C93ECE4F0E01182108227C0AEE4DB
:1014D000B0E0EEE4F0E08081887F8C93AEE4B0E091
:1014E000EEE4F0E0908180917D00892B8C93A9E55A
:1014F000B0E0E9E5F0E0808184608C93AFE5B0E096
:10150000EFE5F0E0808180688C9308C081E08983FA
:1015100005C081E0898302C081E0898389812C969E
:101520000FB6F894DEBF0FBECDBFCF91DF91089507
:10153000DF93CF9300D000D0CDB7DEB78A83198276
:101540008A81282F30E03C832B838B819C810097FC
:1015500031F02B813C812130310549F010C0A3E5E9
:10156000B0E0E3E5F0E08081887F8C930AC0AEE4D0
:10157000B0E0EEE4F0E08081887F8C9302C081E0EF
:10158000898389810F900F900F900F90CF91DF91F9
:101590000895DF93CF9300D000D0CDB7DEB78A8314
:1015A00019828A81282F30E03C832B838B819C8198
:1015B000009731F02B813C812130310529F009C0A1
:1015C000E2E5F0E0108207C0ECE4F0E01182108266
:1015D00002C081E0898389810F900F900F900F9056
:1015E000CF91DF910895DF93CF9300D000D000D04A
:1015F000CDB7DEB78A837C836B8319828B819C8114
:10160000009719F481E08983A6C08A81282F30E0F1
:101610003E832D838D819E81009739F02D813E81FF
:101620002130310509F44BC094C080917C00813099
:1016300039F4EB81FC8110821182128213828BC0FB
:1016400080917C00823059F4EB81FC8181E090E054
:10165000A0E0B0E080839183A283B3837CC08091BB
:101660007C00833059F4EB81FC8188E090E0A0E0BD
:10167000B0E080839183A283B3836DC080917C00AE
:10168000843059F4EB81FC8180E290E0A0E0B0E08E
:1016900080839183A283B3835EC080917C00853078
:1016A00059F4EB81FC818DE790E0A0E0B0E080830D
:1016B0009183A283B3834FC081E089834CC0809122
:1016C0007D00813039F4EB81FC811082118212821D
:1016D000138241C080917D00823059F4EB81FC81FE
:1016E00081E090E0A0E0B0E080839183A283B383A7
:1016F00032C080917D00833059F4EB81FC8188E019
:1017000090E0A0E0B0E080839183A283B38323C004
:1017100080917D00843059F4EB81FC8180E290E07F
:10172000A0E0B0E080839183A283B38314C0809152
:101730007D00853059F4EB81FC818DE790E0A0E0DD
:10174000B0E080839183A283B38305C081E0898365
:1017500002C081E08983898126960FB6F894DEBFA6
:101760000FBECDBFCF91DF910895DF93CF9300D00F
:1017700000D000D0CDB7DEB78A837C836B8319821B
:101780008B819C81009711F481E089838A81282FC5
:1017900030E03E832D838D819E81009731F02D8135
:1017A0003E812130310551F013C0E8E5F0E0808141
:1017B00086958170EB81FC8180830CC0E8E5F0E0C8
:1017C0008081869586958170EB81FC81808302C043
:1017D00081E08983898126960FB6F894DEBF0FBE1B
:1017E000CDBFCF91DF910895DF93CF9300D000D08C
:1017F000CDB7DEB78A837C836B8319828B819C8112
:10180000009719F481E089830EC08A81882F90E0C7
:10181000009739F48B819C8190937B0080937A00B0
:1018200002C081E0898389810F900F900F900F9003
:10183000CF91DF9108951F920F920FB60F9211244E
:101840002F933F934F935F936F937F938F939F93C8
:10185000AF93BF93EF93FF93DF93CF93CDB7DEB7F3
:1018600080917A0090917B00009729F0E0917A00B6
:10187000F0917B000995CF91DF91FF91EF91BF919E
:10188000AF919F918F917F916F915F914F913F9118
:101890002F910F900FBE0F901F901895DF93CF934D
:1018A000CDB7DEB7A5E5B0E0E5E5F0E08081806189
:1018B0008C93A5E5B0E0E5E5F0E0808180628C9353
:1018C000A5E5B0E0E5E5F0E0808180688C93CF91FC
:1018D000DF910895DF93CF9300D000D00F92CDB762
:1018E000DEB78A836B8319828A81282F30E03D839B
:1018F0002C838C819D8181309105D1F02C813D819B
:10190000223031052CF48C819D81009761F01FC03D
:101910002C813D812230310581F08C819D81833085
:10192000910581F014C0EAE3F0E08B81808311C05F
:10193000E7E3F0E08B8180830CC0E4E3F0E08B818F
:10194000808307C0E1E3F0E08B81808302C081E007
:10195000898389810F900F900F900F900F90CF91F6
:10196000DF910895DF93CF9300D00F92CDB7DEB70C
:101970008A836B8319828A81803218F081E089839F
:10198000B4C08B81882331F08B81813019F081E0E4
:101990008983ABC08A81883010F5AAE3B0E0EAE31E
:1019A000F0E08081482F8A81282F30E081E090E0AC
:1019B00002C0880F991F2A95E2F7809548238B81F2
:1019C000282F30E08A81882F90E0B90102C0660F8D
:1019D000771F8A95E2F7CB01842B8C9386C08A818E
:1019E000883048F18A81803130F5A7E3B0E0E7E341
:1019F000F0E08081482F8A81882F90E09C01285058
:101A0000304081E090E002C0880F991F2A95E2F7EC
:101A1000809548238B81282F30E08A81882F90E0A1
:101A20000897B90102C0660F771F8A95E2F7CB01CC
:101A3000842B8C935AC08A81803148F18A81883105
:101A400030F5A4E3B0E0E4E3F0E08081482F8A8140
:101A5000882F90E09C012051304081E090E002C04E
:101A6000880F991F2A95E2F7809548238B81282FAC
:101A700030E08A81882F90E04097B90102C0660F5C
:101A8000771F8A95E2F7CB01842B8C932EC08A8135
:101A9000883148F18A81803230F5A1E3B0E0E1E39A
:101AA000F0E08081482F8A81882F90E09C012851A6
:101AB000304081E090E002C0880F991F2A95E2F73C
:101AC000809548238B81282F30E08A81882F90E0F1
:101AD0004897B90102C0660F771F8A95E2F7CB01DC
:101AE000842B8C9302C081E0898389810F900F90B1
:101AF0000F90CF91DF910895DF93CF9300D000D066
:101B00000F92CDB7DEB78A836B8319828B818823CE
:101B100019F481E0898335C08A81282F30E03D8324
:101B20002C838C819D8181309105D1F02C813D8168
:101B3000223031052CF48C819D81009761F01FC00B
:101B40002C813D812230310581F08C819D81833053
:101B5000910581F014C0EBE3F0E08B81808311C02C
:101B6000E8E3F0E08B8180830CC0E5E3F0E08B815B
:101B7000808307C0E2E3F0E08B81808302C081E0D4
:101B8000898389810F900F900F900F900F90CF91C4
:101B9000DF910895DF93CF9300D00F92CDB7DEB7DA
:101BA0008A836B8319828A81803218F081E089836D
:101BB000B4C08B81882331F08B81813019F081E0B2
:101BC0008983ABC08A81883010F5ABE3B0E0EBE3EA
:101BD000F0E08081482F8A81282F30E081E090E07A
:101BE00002C0880F991F2A95E2F7809548238B81C0
:101BF000282F30E08A81882F90E0B90102C0660F5B
:101C0000771F8A95E2F7CB01842B8C9386C08A815B
:101C1000883048F18A81803130F5A8E3B0E0E8E30C
:101C2000F0E08081482F8A81882F90E09C01285025
:101C3000304081E090E002C0880F991F2A95E2F7BA
:101C4000809548238B81282F30E08A81882F90E06F
:101C50000897B90102C0660F771F8A95E2F7CB019A
:101C6000842B8C935AC08A81803148F18A818831D3
:101C700030F5A5E3B0E0E5E3F0E08081482F8A810C
:101C8000882F90E09C012051304081E090E002C01C
:101C9000880F991F2A95E2F7809548238B81282F7A
:101CA00030E08A81882F90E04097B90102C0660F2A
:101CB000771F8A95E2F7CB01842B8C932EC08A8103
:101CC000883148F18A81803230F5A2E3B0E0E2E366
:101CD000F0E08081482F8A81882F90E09C01285174
:101CE000304081E090E002C0880F991F2A95E2F70A
:101CF000809548238B81282F30E08A81882F90E0BF
:101D00004897B90102C0660F771F8A95E2F7CB01A9
:101D1000842B8C9302C081E0898389810F900F907E
:101D20000F90CF91DF910895DF93CF9300D000D033
:101D300000D0CDB7DEB78A837C836B8319828B8119
:101D40009C81009719F481E089833DC08A81282F06
:101D500030E03E832D838D819E8181309105E1F0BD
:101D60002D813E81223031052CF48D819E8100979A
:101D700061F027C02D813E8122303105A1F08D8197
:101D80009E8183309105B1F01CC0E9E3F0E08081D1
:101D9000EB81FC81808317C0E6E3F0E08081EB817A
:101DA000FC81808310C0E3E3F0E08081EB81FC8163
:101DB000808309C0E0E3F0E08081EB81FC818083D7
:101DC00002C081E08983898126960FB6F894DEBF30
:101DD0000FBECDBFCF91DF910895DF93CF9300D099
:101DE00000D0CDB7DEB78A837C836B8319828B8169
:101DF0009C81009719F481E0898370C08A818032C8
:101E000018F081E089836AC08A818830A0F4E9E310
:101E1000F0E08081282F30E08A81882F90E0A901AE
:101E200002C0559547958A95E2F7CA018170EB810A
:101E3000FC81808353C08A818830C0F08A818031E0
:101E4000A8F4E6E3F0E08081282F30E08A81882F33
:101E500090E00897A90102C0559547958A95E2F749
:101E6000CA018170EB81FC81808338C08A81803116
:101E7000C0F08A818831A8F4E3E3F0E08081282F64
:101E800030E08A81882F90E04097A90102C05595E3
:101E900047958A95E2F7CA018170EB81FC818083C6
:101EA0001DC08A818831C0F08A818032A8F4E0E3C5
:101EB000F0E08081282F30E08A81882F90E04897D9
:101EC000A90102C0559547958A95E2F7CA0181702C
:101ED000EB81FC81808302C081E0898389810F903E
:101EE0000F900F900F90CF91DF910895DF93CF93D4
:101EF000CDB7DEB729970FB6F894DEBF0FBECDBFC2
:101F00008C836D831B821A8281E089838C81282FC8
:101F100030E0398728878885998581309105D1F00F
:101F200028853985223031052CF4888599850097DC
:101F300061F01FC0288539852230310581F0888500
:101F400099858330910581F014C0EAE3F0E0808147
:101F5000898311C0E7E3F0E0808189830CC0E4E36A
:101F6000F0E08081898307C0E1E3F0E0808189832C
:101F700002C081E08A838981882321F081E08B83FC
:101F800081E08A838A818130B1F18C81282F30E011
:101F90003F832E838E819F8181309105D1F02E81E8
:101FA0003F81223031052CF48E819F81009761F0B2
:101FB0001FC02E813F812230310581F08E819F81AB
:101FC0008330910581F014C0EBE3F0E08D818083D4
:101FD00014C0E8E3F0E08D8180830FC0E5E3F0E01A
:101FE0008D8180830AC0E2E3F0E08D81808305C0AB
:101FF00081E08B8302C081E08B838B8129960FB6B1
:10200000F894DEBF0FBECDBFCF91DF910895DF936F
:10201000CF9300D000D00F92CDB7DEB78C836D8305
:102020001B821A8281E089838C81883090F4EAE3F4
:10203000F0E08081282F30E08C81882F90E0A9018A
:1020400002C0559547958A95E2F7CA018170898348
:102050004DC08C818830B0F08C81803198F4E7E3FA
:10206000F0E08081282F30E08C81882F90E0089765
:10207000B90102C0759567958A95E2F7CB01817029
:10208000898334C08C818031B0F08C81883198F4A0
:10209000E4E3F0E08081282F30E08C81882F90E00D
:1020A0004097A90102C0559547958A95E2F7CA0164
:1020B000817089831BC08C818831B0F08C81803223
:1020C00098F4E1E3F0E08081282F30E08C81882FC4
:1020D00090E04897B90102C0759567958A95E2F737
:1020E000CB018170898302C081E08A838981882342
:1020F00021F081E08B8381E08A838A81813009F439
:10210000BBC08C81803218F081E08B83B7C08D8199
:10211000882331F08D81813019F081E08B83AEC04E
:102120008C81883010F5ABE3B0E0EBE3F0E0808128
:10213000482F8C81282F30E081E090E002C0880F8A
:10214000991F2A95E2F7809548238D81282F30E04A
:102150008C81882F90E0B90102C0660F771F8A95A5
:10216000E2F7CB01842B8C9389C08C81883048F1B5
:102170008C81803130F5A8E3B0E0E8E3F0E08081C5
:10218000482F8C81882F90E09C012850304081E0BE
:1021900090E002C0880F991F2A95E2F780954823A6
:1021A0008D81282F30E08C81882F90E00897B9012D
:1021B00002C0660F771F8A95E2F7CB01842B8C93C0
:1021C0005DC08C81803148F18C81883130F5A5E388
:1021D000B0E0E5E3F0E08081482F8C81882F90E02B
:1021E0009C012051304081E090E002C0880F991F8F
:1021F0002A95E2F7809548238D81282F30E08C8145
:10220000882F90E04097B90102C0660F771F8A952A
:10221000E2F7CB01842B8C9331C08C81883148F15B
:102220008C81803230F5A2E3B0E0E2E3F0E080811F
:10223000482F8C81882F90E09C012851304081E00C
:1022400090E002C0880F991F2A95E2F780954823F5
:102250008D81282F30E08C81882F90E04897B9013C
:1022600002C0660F771F8A95E2F7CB01842B8C930F
:1022700005C081E08A8302C081E08B838B810F904F
:102280000F900F900F900F90CF91DF910895DF93F3
:10229000CF93CDB7DEB72F970FB6F894DEBF0FBE42
:1022A000CDBF8F878CE160E00E94CA0D8AE160E0BB
:1022B0000E94CA0D8BE160E00E94CA0D82E06F852A
:1022C0000E947C0D8CE161E00E94CA0D80E090E0EC
:1022D000A0E0B0E48B879C87AD87BE876B857C854B
:1022E0008D859E8520E030E04AEF54E40E941F0275
:1022F000DC01CB018F839887A987BA876F817885A6
:1023000089859A8520E030E040E85FE30E94790308
:1023100088232CF481E090E09E838D833FC06F8101
:10232000788589859A8520E03FEF4FE757E40E9442
:10233000190318164CF56B857C858D859E8520E0EC
:1023400030E040E251E40E941F02DC01CB01BC01FD
:10235000CD010E944900DC01CB019E838D830FC01B
:1023600088EC90E09C838B838B819C810197F1F7B3
:102370009C838B838D819E8101979E838D838D812C
:102380009E81009769F714C06F81788589859A8549
:102390000E944900DC01CB019E838D838D819E814B
:1023A0009A83898389819A810197F1F79A83898336
:1023B0008CE160E00E94CA0D2F960FB6F894DEBF44
:1023C0000FBECDBFCF91DF910895DF93CF93CDB7EF
:1023D000DEB72F970FB6F894DEBF0FBECDBF8F8745
:1023E0008CE160E00E94CA0D8AE161E00E94CA0DA2
:1023F0008BE160E00E94CA0D82E06F850E947C0D37
:102400008CE161E00E94CA0D80E090E0A0E0B0E4C1
:102410008B879C87AD87BE876B857C858D859E85E8
:1024200020E030E04AEF54E40E941F02DC01CB01BF
:102430008F839887A987BA876F81788589859A85E0
:1024400020E030E040E85FE30E94790388232CF429
:1024500081E090E09E838D833FC06F817885898580
:102460009A8520E03FEF4FE757E40E9419031816C2
:102470004CF56B857C858D859E8520E030E040E2C3
:1024800051E40E941F02DC01CB01BC01CD010E947E
:102490004900DC01CB019E838D830FC088EC90E066
:1024A0009C838B838B819C810197F1F79C838B8329
:1024B0008D819E8101979E838D838D819E81009762
:1024C00069F714C06F81788589859A850E944900D3
:1024D000DC01CB019E838D838D819E819A838983CC
:1024E00089819A810197F1F79A8389838CE160E071
:1024F0000E94CA0D2F960FB6F894DEBF0FBECDBF57
:10250000CF91DF910895DF93CF93CDB7DEB7E897F2
:102510000FB6F894DEBF0FBECDBF8AE161E00E9426
:10252000B20C8BE161E00E94B20C8CE161E00E9490
:10253000B20C82E06FEF0E946A0C80E090E0A0EFA6
:10254000B1E48DAB9EABAFABB8AF6DA97EA98FA93F
:1025500098AD20E030E04AEF54E40E941F02DC0115
:10256000CB0189AB9AABABABBCAB69A97AA98BA900
:102570009CA920E030E040E85FE30E9479038823D3
:102580002CF481E090E098AB8FA73FC069A97AA9AD
:102590008BA99CA920E03FEF4FE757E40E94190365
:1025A00018164CF56DA97EA98FA998AD20E030E0F2
:1025B00040E251E40E941F02DC01CB01BC01CD01CD
:1025C0000E944900DC01CB0198AB8FA70FC088ECBB
:1025D00090E09EA78DA78DA59EA50197F1F79EA7D8
:1025E0008DA78FA598A9019798AB8FA78FA598A9BC
:1025F000009769F714C069A97AA98BA99CA90E94C0
:102600004900DC01CB0198AB8FA78FA598A99CA7A7
:102610008BA78BA59CA50197F1F79CA78BA788E3B7
:102620000E94471180E090E0A0E8BFE38FA398A745
:10263000A9A7BAA76FA178A589A59AA520E030E03F
:102640004AEF54E40E941F02DC01CB018BA39CA340
:10265000ADA3BEA36BA17CA18DA19EA120E030E023
:1026600040E85FE30E94790388232CF481E090E046
:102670009AA389A33FC06BA17CA18DA19EA120E05C
:102680003FEF4FE757E40E94190318164CF56FA16E
:1026900078A589A59AA520E030E040E251E40E94A7
:1026A0001F02DC01CB01BC01CD010E944900DC010D
:1026B000CB019AA389A30FC088EC90E098A38F8FD9
:1026C0008F8D98A10197F1F798A38F8F89A19AA177
:1026D00001979AA389A389A19AA1009769F714C0C9
:1026E0006BA17CA18DA19EA10E944900DC01CB01C0
:1026F0009AA389A389A19AA19E8F8D8F8D8D9E8D7E
:102700000197F1F79E8F8D8F8CE00E94471180E03A
:1027100090E0A0E8BFE3898F9A8FAB8FBC8F698D63
:102720007A8D8B8D9C8D20E030E04AEF54E40E943E
:102730001F02DC01CB018D8B9E8BAF8BB88F6D8917
:102740007E898F89988D20E030E040E85FE30E9429
:10275000790388232CF481E090E09C8B8B8B3FC025
:102760006D897E898F89988D20E03FEF4FE757E490
:102770000E94190318164CF5698D7A8D8B8D9C8DEE
:1027800020E030E040E251E40E941F02DC01CB0176
:10279000BC01CD010E944900DC01CB019C8B8B8BDD
:1027A0000FC088EC90E09A8B898B89899A89019770
:1027B000F1F79A8B898B8B899C8901979C8B8B8BEA
:1027C0008B899C89009769F714C06D897E898F89F0
:1027D000988D0E944900DC01CB019C8B8B8B8B89EF
:1027E0009C89988B8F878F8598890197F1F7988BB3
:1027F0008F8781E00E94471180E090E0A0E0B0E484
:102800008B879C87AD87BE876B857C858D859E85F4
:1028100020E030E04AEF54E40E941F02DC01CB01CB
:102820008F839887A987BA876F81788589859A85EC
:1028300020E030E040E85FE30E94790388232CF435
:1028400081E090E09E838D833FC06F81788589858C
:102850009A8520E03FEF4FE757E40E9419031816CE
:102860004CF56B857C858D859E8520E030E040E2CF
:1028700051E40E941F02DC01CB01BC01CD010E948A
:102880004900DC01CB019E838D830FC088EC90E072
:102890009C838B838B819C810197F1F79C838B8335
:1028A0008D819E8101979E838D838D819E8100976E
:1028B00069F714C06F81788589859A850E944900DF
:1028C000DC01CB019E838D838D819E819A838983D8
:1028D00089819A810197F1F79A838983E8960FB6E7
:1028E000F894DEBF0FBECDBFCF91DF910895DF9387
:1028F000CF9300D00F92CDB7DEB79B838A83198226
:102900000EC08981282F30E08A819B81FC01E20F73
:10291000F31F80810E94E51189818F5F89838981FE
:10292000282F30E08A819B81FC01E20FF31F808118
:10293000882339F70F900F900F90CF91DF91089572
:10294000DF93CF9300D00F92CDB7DEB78A836B832E
:102950008A81882321F48B818058898306C08A81EB
:10296000813019F48B818054898389810E944711B9
:102970000F900F900F90CF91DF910895DF93CF9339
:10298000CDB7DEB78CE00E944711CF91DF9108955B
:10299000DF93CF93CDB7DEB788E00E944711CF9188
:1029A000DF910895DF93CF93CDB7DEB78CE00E941F
:1029B0004711CF91DF910895DF93CF93CDB7DEB765
:1029C0008EE00E944711CF91DF910895DF93CF935E
:1029D000CDB7DEB78FE00E944711CF91DF91089508
:1029E000DF93CF93CDB7DEB78EE00E944711CF9132
:1029F000DF910895DF93CF9300D000D000D0CDB702
:102A0000DEB78A837C836B834D832E8380E40E94B0
:102A10004711198219820EC08981282F30E08B81DD
:102A20009C81FC01E20FF31F80810E94E5118981E6
:102A30008F5F89838981282F30E08A81882F90E0F9
:102A4000880F991F880F991F880F991F281739071A
:102A50001CF38D816E810E94A01426960FB6F89407
:102A6000DEBF0FBECDBFCF91DF910895DF93CF932F
:102A7000CDB7DEB763970FB6F894DEBF0FBECDBFFC
:102A8000688B798B8A8B9B8B81E08D831B828889F5
:102A900099899A8389830DC08D818F5F8D83898108
:102AA0009A812AE030E0B9010E94C618CB019A83CE
:102AB000898389819A818A30910570F788899989FB
:102AC0009A8389838D818C831FC08D81882F90E0AC
:102AD000FC01319789819A812AE030E0B9010E9496
:102AE000C618282FCE010696E80FF91F208389818A
:102AF0009A812AE030E0B9010E94C618CB019A837E
:102B000089838D8181508D838D818823F1F61B828D
:102B10000FC08B81282F30E0CE010696FC01E20F1A
:102B2000F31F8081805D0E94E5118B818F5F8B8315
:102B30009B818C81981768F363960FB6F894DEBF7B
:102B40000FBECDBFCF91DF910895DF93CF93CDB767
:102B5000DEB728970FB6F894DEBF0FBECDBF9C83BB
:102B60008B838EE893E09A8389838B819C81009785
:102B700009F4BFC1EB81FC818281813091F481E055
:102B800080938200AFE5B0E0EFE5F0E080818068FF
:102B90008C93ADE2B0E0EDE2F0E0808180688C9350
:102BA00013C0EB81FC818281882351F41092820052
:102BB000ADE2B0E0EDE2F0E080818F778C9304C06D
:102BC00080E993E09A83898389819A8123E08E3812
:102BD000920709F092C1EB81FC818481882341F442
:102BE000ADE2B0E0EDE2F0E0808180628C9311C054
:102BF000EB81FC818481882341F4ADE2B0E0EDE219
:102C0000F0E080818F7D8C9304C081E993E09A830A
:102C1000898389819A8133E08E38930709F06DC1E9
:102C2000EB81FC818381882309F0ACC08CE061E0FA
:102C30000E94B20C8DE061E00E94B20C8EE060E078
:102C40000E94B20C8FE061E00E94B20CADE2B0E0F5
:102C5000EDE2F0E0808180618C93EB81FC818181E9
:102C6000882341F4AEE2B0E0EEE2F0E080818E7FB6
:102C70008C9311C0EB81FC818181813041F4AEE203
:102C8000B0E0EEE2F0E0808181608C9304C084E9E2
:102C900093E09A83898389819A8123E08E38920711
:102CA00009F02BC1ADE2B0E0EDE2F0E080818E7F73
:102CB0008C93ADE2B0E0EDE2F0E080818D7F8C930B
:102CC000EB81FC818081282F30E038872F838F8132
:102CD00098858130910521F12F8138852230310589
:102CE0002CF48F819885009761F047C02F8138853B
:102CF0002230310521F18F8198858330910571F162
:102D00003CC0ADE2B0E0EDE2F0E080818E7F8C93DC
:102D1000ADE2B0E0EDE2F0E080818D7F8C93EDC01C
:102D2000ADE2B0E0EDE2F0E0808181608C93ADE255
:102D3000B0E0EDE2F0E080818D7F8C93DEC0ADE20B
:102D4000B0E0EDE2F0E080818E7F8C93ADE2B0E008
:102D5000EDE2F0E0808182608C93CFC0ADE2B0E024
:102D6000EDE2F0E0808181608C93ADE2B0E0EDE2D5
:102D7000F0E0808182608C93C0C085E993E09A8303
:102D80008983BBC0EB81FC818381813009F0ACC0B9
:102D90008CE060E00E94B20C8DE060E00E94B20C1A
:102DA0008EE061E00E94B20C8FE060E00E94B20C05
:102DB000ADE2B0E0EDE2F0E080818F7E8C93EB81BC
:102DC000FC818181882341F4AEE2B0E0EEE2F0E0E4
:102DD00080818E7F8C9311C0EB81FC818181813059
:102DE00041F4AEE2B0E0EEE2F0E0808181608C93ED
:102DF00004C084E993E09A83898389819A8123E0DE
:102E00008E38920709F079C0ADE2B0E0EDE2F0E073
:102E100080818E7F8C93ADE2B0E0EDE2F0E08081C6
:102E20008D7F8C93EB81FC818081282F30E03E8365
:102E30002D838D819E818130910521F12D813E81EF
:102E4000223031052CF48D819E81009761F047C0BE
:102E50002D813E812230310521F18D819E8183308B
:102E6000910571F13CC0ADE2B0E0EDE2F0E08081AF
:102E70008E7F8C93ADE2B0E0EDE2F0E080818D7F5B
:102E80008C933BC0ADE2B0E0EDE2F0E08081816088
:102E90008C93ADE2B0E0EDE2F0E080818D7F8C9329
:102EA0002CC0ADE2B0E0EDE2F0E080818E7F8C934B
:102EB000ADE2B0E0EDE2F0E0808182608C931DC075
:102EC000ADE2B0E0EDE2F0E0808181608C93ADE2B4
:102ED000B0E0EDE2F0E0808182608C930EC085E985
:102EE00093E09A83898309C082E993E09A83898376
:102EF00004C08FE893E09A83898389819A8123E0D3
:102F00008E38920759F481E080938300ADE2B0E0FF
:102F1000EDE2F0E0808180648C9302C01092830027
:102F200089819A8128960FB6F894DEBF0FBECDBF77
:102F3000CF91DF910895DF93CF9300D00F92CDB75B
:102F4000DEB78B8382EA93E09A8389838091830042
:102F5000813059F5809182008823F1F4ADE2B0E030
:102F6000EDE2F0E080818F778C93EFE2F0E08B81EF
:102F70008083EEE2F0E08081881F8827881F882FF9
:102F800090E090700097A9F3AEE2B0E0EEE2F0E0DE
:102F9000808180688C930DC01092860010926C0026
:102FA000EFE2F0E08B81808304C089E993E09A83AB
:102FB000898389819A810F900F900F90CF91DF9133
:102FC0000895DF93CF9300D000D0CDB7DEB79C83B8
:102FD0008B8382EA93E09A83898380918300813096
:102FE00091F58B819C81009749F180918200882323
:102FF000C9F4EEE2F0E08081881F8827881F882FBF
:1030000090E090700097A9F3EFE2F0E08081EB810F
:10301000FC818083AEE2B0E0EEE2F0E08081806887
:103020008C9315C081E080938600A0918400B091BC
:103030008500EFE2F0E080818C9309C084EA93E0A0
:103040009A83898304C083EA93E09A838983898180
:103050009A810F900F900F900F90CF91DF9108956C
:10306000DF93CF93CDB7DEB781E080936C00CF9133
:10307000DF910895DF93CF93CDB7DEB72E970FB6CC
:10308000F894DEBF0FBECDBF1D821B821E821F8241
:10309000188619861A82198284E160E00E94B20CB7
:1030A00084E161E00E94071082E08A871B861C860B
:1030B00081E08D871E86CE010A960E94A5158DE6B9
:1030C00090E00E94A305CE0105960E94E1178D8134
:1030D00086958B831AC08A81482F50E08B819AE0B5
:1030E000692F0E94BA18892F282F205DCE010696DD
:1030F000FC01E40FF51F20838B819AE0692F0E9469
:10310000BA188B838A818F5F8A838B818A3018F704
:103110008A81482F50E08B819AE0692F0E94BA186B
:10312000892F282F205DCE010696FC01E40FF51FA4
:1031300020838A8189830EC08981282F30E0CE01C7
:103140000696FC01E20FF31F80810E9459078981D6
:10315000815089838981882379F78981282F30E0FC
:10316000CE010696FC01E20FF31F80810E945907F1
:103170001A82A9CF991B79E004C0991F961708F00D
:10318000961B881F7A95C9F780950895AA1BBB1BCB
:1031900051E107C0AA1FBB1FA617B70710F0A61B57
:1031A000B70B881F991F5A95A9F780959095BC0178
:1031B000CD010895A1E21A2EAA1BBB1BFD010DC073
:1031C000AA1FBB1FEE1FFF1FA217B307E407F507D7
:1031D00020F0A21BB30BE40BF50B661F771F881FB3
:1031E000991F1A9469F760957095809590959B0149
:1031F000AC01BD01CF0108952F923F924F925F9293
:103200006F927F928F929F92AF92BF92CF92DF92F6
:10321000EF92FF920F931F93CF93DF93CDB7DEB75B
:10322000CA1BDB0B0FB6F894DEBF0FBECDBF0994EF
:103230002A88398848885F846E847D848C849B8446
:10324000AA84B984C884DF80EE80FD800C811B8154
:10325000AA81B981CE0FD11D0FB6F894DEBF0FBE83
:0A326000CDBFED010895F894FFCFF3
:10326A0000000000000000000005000101802500A8
:04327A00000301004C
:00000001FF
